:020000040800F2
:20000000E01C00200D2E0008312E0008352E0008392E00083D2E0008412E00080000000056
:20002000000000000000000000000000452E0008492E0008000000004D2E0008512E0008BC
:20004000552E0008592E00085D2E0008612E0008652E0008692E00086D2E0008712E0008D8
:20006000752E0008792E00087D2E0008812E0008852E0008892E00088D2E0008912E0008B8
:20008000952E0008992E00089D2E0008152D0008192D0008A92E0008AD2E0008B12E0008B2
:2000A000B52E0008B92E0008BD2E00081D2D0008C52E0008C92E0008CD2E0008D12E00081D
:2000C000D52E0008D92E0008DD2E0008E12E0008E52E0008E92E0008ED2E0008F12E000858
:2000E000F52E0008F92E0008FD2E0008FFFFFFFFFFFFFFFFFFFFFFFFFFFFFFFFFFFFFFFF87
:20010000153CA54700000021772A000810B5DFF8204700B92EE0DFF81C070068006880477D
:2001200020680A3010BD80B5DFF80407DFF8082700685278C1788A420DD38278002A04BF15
:200140008288002A07D18172DFF8E806006840688047002002BD022002BD10B5DFF8D04692
:2001600000B907E0DFF8CC0600688068804720680C3010BD206801210182002010BD10B5AF
:20018000DFF8AC46DFF8B42620681268C17840799269904721688A7A9AB1002804BF0879DB
:2001A00000280ED1887860B9DFF888060068C068804720684179C1722068C1780173002099
:2001C00010BD022010BD10B5DFF86416096818B902200882002010BD0020DFF86446208031
:2001E0007F220878104215D1487A810603D5002141F0020121704006217854BF01F0FE00BE
:2002000041F001002070DFF82C06006800698047204610BD00F07F02012AF9D000F07F0074
:200220000228D7D14879DFF81C2600F00F01000652F8210007D500F030001028E3D1002099
:2002400040F00100DEE700F44050B0F5805FDAD1002040F00100D5E770B5DFF8D4050068AB
:20026000017811F07F0104D1417A01F0DF01417251E0022901BF41880029017900294CD1A2
:200280004179DFF8C04521F080050A0654F825204CBF02F0300202F44052DFF89C351B789F
:2002A0009D423AD2002A1CBF807A002835D0080654F825000BD500F03000102826D128460B
:2002C00000F045FB3021284600F0F6FA1EE000F44050B0F5805F19D14BF68F7665B9DFF824
:2002E000680590F82C10002000F05EFB2068304080F44050206009E0284600F018FB54F842
:200300002500304080F4405044F82500DFF82405006840698047002070BD022070BD38B582
:20032000DFF80C05DFF81C150268537923F080001C0651F820404CBF04F0300404F440547A
:20034000DFF8F4542D78A84206D2558825B9002C1CBF927A002A01D1022032BD1A0651F8D3
:20036000202005D548F6BF731A4082F0100204E04BF68F731A4082F4805241F82020DFF8FC
:20038000B404006880698047002032BDDFF8A0241268538A20B98888C01A10820020704760
:2003A0000868181870472DE9F041DFF88444206800F110052988002904BF007A042802D15C
:2003C0000726102025E0AF888F4205D30426B94288BF39460F4600E00226A9683846884735
:2003E0008046002000F0D1FA01463A46404600F02AFB3946002000F0D0FA2888DFF84C14BA
:20040000C01B28804FF440526888381868800A803020DFF83C14088020680672BDE8F081BD
:2004200038B5DFF80C442068457801787F22114241D1092D02D1FFF776FE50E0052D1BD123
:20044000C178802959DA8178002901BF81880029807A002851D1DFF8FC13DFF8FC230968E2
:2004600089B2002342F811300620DFF8E41330220A802168087231BD032D11D1C17801296D
:2004800004BF818800292CD1417A8A0629D541F020014172DFF89C030068C0698047DAE78D
:2004A000012D04BFC17801291BD18188C9B9407A80060DD415E001F07F00012804D10B2DB5
:2004C0000FD1FFF75CFE0AE002280AD1012D02D1FFF7C2FE03E0032D03D1FFF720FF002822
:2004E000B9D0DFF858130968496928468847032808BF0920BDD00028ADD00820B9E710B5F7
:20050000CB4C20684178062916D101787F22114231D18078012803D1C8480068C16975E012
:20052000022803D1C5480068016A6FE0032822D1C2480068416A69E0002944D141880029DA
:2005400004BFC188022916D10179A1B901787F22114204BF8288002A33D001F07F02012AA5
:2005600015D1B64A4079126892690021904710B92068807A28BBB149206809684078096924
:20058000884703284BD120680921017210BD01F07F010229EFD14079AA4B00F00F0100F059
:2005A0007002000653F821004CBF00F0300000F44050A14B1B789942DDD2002ADBD10028A1
:2005C000D9D0A64922E0082905D100787F210842D1D1A3491AE00A2902BF017801F07F01B2
:2005E0000129C8D1817A0029C5D04188002901BF01790029C1880129BDD1904A407912681C
:200600009269002190470028B5D196490800B2D020680022428281610020884700202168E8
:200620000A8A4FF6FF739A4208BF092004D0022818BF002A02D10820087210BD08780006DC
:200640000BD5C888904238BF08827C48006890F82C008882BDE81040A5E6032008724FF4CD
:2006600040517A48018010BD38B57A487E4900686F4C80B231F8100021680A7A400000F197
:20068000804000F5C040092A14D010F8012B0A70216810F8012B4A70851C35F8040B00F09C
:2006A000CDF921684880288800F0C8F921688880A888C8800121206801722068C08810B903
:2006C000FFF7AEFE01E0FFF71AFFBDE831407DE010B5574C2068017A022918BF042904D1A6
:2006E000FFF761FE2068007A14E0062911D14178052902BF01787F22114206D1C07800F08A
:200700007FF84C480068006A80474C48006880688047082021680872BDE8104056E0F8B587
:20072000434C2068017A032918BF052943D100F11005A9682E88080018BF002E14D0A888F4
:20074000864288BF06463046884707462888801B2880688830186880002000F017F9014632
:200760003246384600F085F9288850B137484FF4405101800020002100F00FF9344830218A
:2007800001802888AA882168904228BF032001D210B1052008720BE00620087200222D483C
:2007A0002D49006880B241F810203021284801802068007A06E0072903D120480068C0689A
:2007C0008047082021680872BDE8F14080B51E4890F82C10002000F0E7F815480068017AC3
:2007E000082906D119494FF480520A80102218490A80007A092801D1012002BD002002BD97
:20080000F0B40D490F4B0978002259B11C4648F68F7526682E40D7B23E43521C44F8046B14
:200820008A42F6D340F08000D864F0BC70470000841400208C140020480300208814002035
:20084000C4140020005C004034020020C8140020CA140020505C004004600040C701000854
:200860000D0100085B01000808600040704710B450F8041B81B102681218001D50F8043B0A
:20088000DC0744BFA9F10104E31852F8044B43F8044B091FF9D1EBE710BC70474FF6F871C0
:2008A0000840DFF8801108607047DFF87C2152F8203048F68F1C5AE0DFF86C2152F820303A
:2008C00048F6BF7C0CEA03035FEAC16C48BF83F01003890648BF83F0200310E0DFF8482144
:2008E00052F820304BF68F7C0CEA03035FEAC14C48BF83F48053890448BF83F4005342F8D7
:2009000020307047DFF8201151F820204BF68F731A4082F4405207E0DFF80C1151F8202036
:2009200048F68F63FFE71A4041F820207047DFF8F81051F82020520408D551F8202048F6B5
:200940008F731A4042F4804241F820207047DFF8D81051F82020520608D551F8202048F6CF
:200960008F731A4042F0400241F8202070470CEA0303194342F82010704738E0294A1268F9
:2009800092B202EBC000294A37E03BE02549096889B201EBC00025493AE0224A126892B249
:2009A00002EBC000224A2AE01E4A126892B202EBC000204A02EB40003F2909DB4A091F23C9
:2009C000194208BF521E1204910941F4004105E04A08C90748BF521C12049109016070471B
:2009E0001049096889B201EBC000124914E00D4A126892B202EBC0000F4A4908490042F808
:200A0000101070470749096889B201EBC0000A4951F8100080B2704751F810008005800D57
:200A200070470000505C0040005C004008600040046000400C600040006000400106090CC3
:200A400041EA10207047490001F18041521C01F5C04152100AD1704710F8013B10F801CB17
:200A600043EA0C2321F8023B891C521E002AF3D17047490001F18041521C01F5C041521047
:200A800005D1704751F8043B20F8023B521E002AF8D17047F0B5046842688368C068DFF82D
:200AA0000C56DFF80C760C604A608B60C8600A26C0F3072EC0F3074C1EF807E01CF807C05C
:200AC0004FEA0E4E4EEA0C6C5FFA80FE1EF807E04CEA0E2C4FEA106E1EF807E04EEA0C0C89
:200AE00055F804EB8EEA0C0C8CEA0404624041F8104F53404A6058408B60C860761ED7D14E
:200B0000F0BDC7E72DE9F04F036852F8A04F84EA030E4368546884EA030883689468C06813
:200B200084EA0309D368DFF88C4583EA000CA2F1200009221B23CCF307464FEA1E65365D68
:200B40002D5D360446EA0565C9F30726CEF30747365D3F5D45EA06255FFA88F63F04365D09
:200B60003543066975404FEA1866C8F3074A365D1AF804A047EA0666CCF307274FEA0A4AB6
:200B80003F5D46EA07265FFA89F7C8F307283F5D18F804803E4347697E404FEA1967C9F305
:200BA00007493F5D19F804904AEA0767CEF3072A5FFA8EFE1AF804A01EF804E047EA0A2719
:200BC0005FFA8CFA4FEA1C6C4FEA09491CF804C01AF804A049EA0C6C4CEA082C4EEA0C0CF7
:200BE000D0F81CE04FEAD5188EEA0C0C08F0013805F07F3E03FB08F888EA4E0E4AEA07078A
:200C00004FEADE19D0F818A009F001390EF07F3803FB09F98AEA070789EA48084FEAD81ACC
:200C20000AF0013A08F07F3903FB0AFA8AEA490989EA050585EA0E0B88EA0E0E89EA0E0EE5
:200C400085EA080A8EEA3B6E8EEA3A4E4FEAD6188EEA352E08F0013806F07F3503FB08F817
:200C600088EA45054FEAD51909F0013905F07F3803FB09F989EA48084FEAD81A0AF0013A8F
:200C800008F07F3903FB0AFA8AEA490989EA060686EA050B88EA050589EA050586EA080A62
:200CA00085EA3B6585EA3A4585EA3628FE0906F0013607F07F355E4386EA45054FEAD51909
:200CC00009F0013905F07F3603FB09F989EA46064FEAD61A0AF0013A06F07F3903FB0AFA6A
:200CE0008AEA490989EA070787EA050B754089EA050587EA060A85EA3B6585EA3A454FEA43
:200D0000DC1685EA372906F001360CF07F355E4386EA4505EF0907F0013705F07F365F4367
:200D200087EA46064FEAD61A0AF0013A06F07F3703FB0AFA8AEA470787EA0C0C8CEA050B19
:200D400075407D408CEA060A85EA3B6585EA3A45103885EA3C2C521E7FF4EDAECEF30743F6
:200D60004FEA18621B5D125D1B0443EA0262CCF30723C8F307451B5D2D5D42EA03225FFA8D
:200D800089F32D041B5D1A4343695A404FEA1963C9F307461B5D365D45EA0363CEF3072540
:200DA00036042D5D43EA05235FFA8CF5CCF307472D5D3F5D2B4385696B404FEA1C653F0409
:200DC0002D5D46EA0565C8F30726365D45EA06255FFA8EF6365D3543C669006975404FEAAC
:200DE0001E66365D47EA0666C9F307273F5D46EA07265FFA88F73C5D3443604008604A60C2
:200E00008B60CD60BDE8F08F2DE9F0470368146855689668A64F634044686C408568C068A2
:200E20007540D66886EA000902F1100009221B26C4F3074E4FEA136C1EF807E01CF807C03B
:200E40004FEA0E4E4EEA0C6CC5F3072EC5F307481EF807E018F807804CEA0E2C5FFA89FE75
:200E60004FEA08481EF807E04EEA0C0C4FEA146EC9F3074A1EF807E01AF807A048EA0E6E70
:200E8000C9F307284FEA0A4A18F807804EEA082E5FFA83F84FEA196918F8078019F8079007
:200EA00048EA0E0E4FEA156818F807804AEA0868C3F3072AC3F307431AF807A0DB5D48EAE9
:200EC0000A285FFA84FAC4F307241B04E45D1AF807A043EA096343EA0423ECB24AEA08083F
:200EE000E45D44EA03094FEADC1303F0013373430CF07F34CCF3066A83EA44058CEA4A6AB4
:200F000083EA0A0A8CEA440463401B0243EA1A636B4083EA3C4350F8044B83EA3C2363408B
:200F20004FEADE1404F0013474430EF07F35CEF3066A84EA450C8EEA4A6A84EA0A0A8EEADE
:200F400045056C40240244EA1A6484EA0C0484EA3E4450F8045B84EA3E246C404FEAD81512
:200F600005F00135754308F07F3CC8F3066A85EA4C0E88EA4A6A85EA0A0A88EA4C0C85EA05
:200F80000C052D0245EA1A6585EA0E0585EA384550F804CB85EA38258CEA05054FEAD91C64
:200FA0000CF0013C06FB0CFC09F07F3EC9F3066A8CEA4E0889EA4A6A8CEA0A0A89EA4E0EC1
:200FC0008CEA0E0C4FEA0C2C4CEA1A6C8CEA080C8CEA394C50F804EB8CEA392C8EEA0C0930
:200FE000521E7FF425AFC5F30746220EF65DD25D360446EA0262C9F30726C9F3074CF65D6A
:201000001CF807C042EA0622DEB24FEA0C4CF65D3243466872402E0EC3F3074EF65D1EF8A8
:2010200007E04CEA0666C3F3072C4FEA0E4E1CF807C046EA0C265FFA84FC1B0E1CF807C08F
:20104000DB5D4CEA0606D0F808C08CEA06064FEA196C1CF807C04EEA0C6CC4F3072EC4F318
:201060000744E45D1EF807E0240444EA03634CEA0E2CC5F307245FFA85FEE45D1EF807E0BE
:2010800043EA04234EEA0C0C5FFA89F4D0F80CE0E45D00682343584008604A608EEA0C0CD9
:2010A0008E60C1F80CC0BDE8F08700006402002000000020000100202DE9F04F93B080467C
:2010C00002AE002014461D460291B0610DF1300A0AE014F8011B0298C0470290002800F04A
:2010E000B481B069401CB061207808B9B069AEE12528EED10020F0603061706101E040F045
:20110000010014F8011F2029F9D023290DD02B2904D02D2906D030290AD00CE040F00200C2
:2011200080B2EEE740F00400FAE740F00800F7E740F01000F4E72A290DD129680A1D2A60EF
:2011400009683162002904D5494240F00400316280B2641C13E0002131620BE0316A6FF0F9
:201160000043994205D001EB810302EB430130393162641C2278A2F130010A29EED3217874
:201180002E2903D04FF0FF31F1611EE014F8011F2A2906D129680A1D2A60641C0968F1618B
:2011A00013E00021F1610BE0F1696FF00043994205D001EB810302EB43013039F161641C56
:2011C0002278A2F130010A29EED3B0840FF28030217800F0C1F908B114F8010B8DF82E0011
:2011E0009DF82E00682804BF2078682803D162208DF82E00641C0CA8B0602278252A13D098
:20120000582A34D0632A00F0A580642A18BF692A68D06F2A2BD0702A20D0732A09D0752A43
:2012200018BF782A23D09FE0F068411CF160252197E02868011D29600068F2697060002A0C
:2012400002D500F0A5F907E0002100F0C1F900281ABF7168401AF069306191E02868011D3A
:2012600029607821006801900CA870606EE09DF82E306C2B08BF286811D0712B08BF2868CC
:2012800002D028686A2B0AD1C01D20F007002860014601F108002860D1E9000102E0011D7C
:2012A000296000680190682B02D101A8008803E0622B02D101A80078019096F82400000767
:2012C0003FD5019800283CD042F02000782838D1F068302100F80A10401C411CF16000F875
:2012E0000A202EE09DF82E00622802D0682806D00BE02868011D296090F9000009E028680D
:20130000011D2960B0F9000003E02868011D296000680190002804D5F068411CF1602D2115
:201320000DE0B08C810704D5F068411CF1602B2105E0C00705D5F068411CF160202100F80C
:201340000A10F0680CA940187060114601A800F081F815E0F068411CF16029680A1D2A6098
:20136000096800F80A100BE0F068411CF160252100F80A1022B1F068411CF16000F80A20A6
:20138000306AF168401A7169401A3169A0EB010996F82400641C40070FD420208DF800007C
:2013A000002708E0012300AA01A9404600F0B9F800284AD17F1C4F45F4DBF7680DF1300BA6
:2013C0000AE01BF8011B0298C047029000283CD0B069401CB0617F1E002FF2D130208DF8A3
:2013E00000004FF0000B776908E0012300AA01A9404600F096F840BB0BF1010BBB45F4DB8D
:201400003769D6F804B009E01BF8011B0298C0470290D0B1B069401CB0617F1E002FF3D1C8
:2014200096F8240040077FF55FAE20208DF8000000E07F1C4F45BFF657AE012300AA01A92C
:20144000404600F06EF80028F3D04FF0FF3013B0BDE8F08FF0B4C2686F2908BF082405D042
:2014600041F02003782B14BF0A241024066818233746642918BF692902D1002E48BF7F425B
:201480005FB9056A4DB9082C27D190F82810090723D530211723D1751FE0B7FBF4F604FB60
:2014A000167730375D1EFFB22B463A2FA4BFA1F1510C6744AF54370003D085689E18B5428E
:2014C000EBD3082C09D190F82810090705D5995C302902D05B1E30219954C3F11801416150
:2014E0009A188260026A914208DA511A81614FF6EF72018D11400185F0BC7047002A0ED56F
:2015000090F8282002F01402102A08D1426A0369D21A8369D21A531A012BA8BF8361F0BC74
:201520007047F8B504460D4616461F46002004E0E869401CE8617F1E002047B116F8011B10
:201540006868A04768600028F2D14FF0FF30F2BD686C747A4C0000000278C9B28A421AB16A
:201560001CBF10F8012FF9E718BF0020704750F8041B61B150F8042BD30744BFA9F101035F
:201580009A18002342F8043B091FFAD1EFE7704700F10103810704D010F8011B89B1810746
:2015A000FAD10268B2F10131914311F0803F04BF50F8042FF6E710F8011B11B110F8011B68
:2015C000FBE7C01A70470268531C036011707047C9B2830706D0521E22D310F8013B9942C5
:2015E000F7D11FE0083A13D302F1040241EA012141EA014150F8043B121F21BF4B40A3F192
:20160000013C2CEA030C1CF0803FF3D0C9B2001F083210F8013B521E28BF91EA030FF8D80E
:2016200018BF0120401E704780B500F0C1F9CA49087001BD2DE9F84304460D46A04615F09C
:20164000030F0BD04FF6FC702840001D854205D2411BC248FF22281800F06EFA0026C04F75
:201660000DB97E8213E0DFF8F49259F8041B204600F0BDF9241D361DAE42F6D30020788271
:20168000788A18F8011B081878826D1EF8D1788A398A88420CBF00200320F872BDE8F1838E
:2016A000AF48022181720021C172AE480170704730B5AD484178491E8BB0092900F243818E
:2016C000DFE811F037004101A700F80013012B011A000A001F0028001422A44905A800F0BF
:2016E0006FFAA34800788DF818001422A02105A8FFF7A9F9142104E19948072101730BB0F3
:2017000030BD81784129A8BF4021924800F013FB0BB030BD01A8002100220B460C461EC0C4
:201720004FF004500190102101A800F004FB0BB030BD8B4CA17A022918BF05295FD18279C7
:20174000002A04BFC17900290BD1012060620620A072E07A207000206070608006202071D1
:20176000F4E084490B78A3B9C378857845EA03232362C37942EA0322A2614279007940EAE9
:2017800002202082A069E0610020E0810120087026E0206A784D98B9002100F029FB2878A6
:2017A000E97820730904287941EA0060A97840EA01206978084360610320A0722071C5E038
:2017C000E089A2690019412A11D340222946283000F0E6F9E0894030E081A0694038A06179
:2017E0004FF440510220FFF779F80BB030BD2946283000F0D5F90320A0722071A6E00A20E9
:20180000A0720F2020700020607060800A2020719CE0534CA07A032814D0042802D00628FC
:2018200041D03AE0607BC1073DD50521A172217100F0FE000021617061806073E17A21707D
:2018400000210DE0607BC1070ED500F0FE0005216073A17221710021E07A617061802070AB
:20186000012000F0C5FA1EE00421A1722171217B412916BF512950210021009140F0020026
:201880009DF80010617060739DF80110A1709DF80210E170E17A217005E0207100206070FE
:2018A0006080E07A20700622A0212046FFF7CBF8062126E02A4CA07A0A2808D10220A0725A
:2018C0000020206002202071002060710BE00A20A0720E2020700020607060800A20207154
:2018E000002060710E20E07230E01D4CA07A60720222E07A2072A02104F10800FFF7A3F8B3
:2019000002210120FFF749F830210120FEF7D4FF1848032101700BB030BD114CA07A801E60
:20192000012884BFC01E012801D9001F0ED10220A072002020600220207100206071206262
:20194000A061E07202E0022000F01BFA00F00EFA0BB030BD303C0008D6140020740B00206E
:201960004C0300209D140020A0140020E0F7FF1F203C00089C14002028140020DFF898114E
:201980000A6802F03802FFE70A600A68104308607047DFF884110A6822F01002F4E7DFF8C1
:2019A0007C01DFF87C110160DFF878110160704770B5054640F6FF76304600F078F8042850
:2019C00014D1DFF86441206840F0020020606560206840F040002060304600F068F8012840
:2019E00004D0216841F6FD721140216070BD70B50E46054616F1010F01D1042070BD0F20B8
:201A000000F055F8042816D1474C206840F0010020602E800F2000F04AF8042804D1300C5E
:201A200068800F2000F043F8012804D0216841F6FE721140216070BD70B5044640F6FF751F
:201A4000284600F034F8042830D1384E3448306034483060B06840F02000B060B06840F071
:201A60004000B060284600F022F8042817D1B06841F6DF710840B060002CB06840F010000F
:201A8000B0602B4814BF0021A5210180284600F00EF801280AD0B16841F6EF7204E0012863
:201AA00004D0B16841F6DF721140B16070BD18B4204A13680421DB0748BF012108D41368EA
:201AC0005B0748BF022103D41368DB0648BF0321FF2304E01468E40648BF0321401E0129FD
:201AE00015D1A8B100210091009302E00099491E009100990029F9D104211468E40748BFD0
:201B00000121EBD414686407E4D50221E6E700B90521084612BC70470020024004200240DA
:201B200023016745AB89EFCD102002400820024000F8FF1F0C20024062F30F2262F31F4249
:201B4000401810F0030308D0C91A1FD3DB0748BF00F8012D28BF20F8022D130030B41446EC
:201B60001546103928BF20E93C00FAD8490728BF20E90C0048BF40F8042D890028BF20F87F
:201B8000022D48BF00F8012D30BC7047C91818BF00F8012DCB0728BF00F8012D70470000D2
:201BA00062B38B0708D0521E11F8013B00F8013B00F024808B07F6D1830740F0208000BFB7
:201BC000103A07D330B4B1E83810103AA0E83810F9D230BC530724BFB1E80810A0E80810BD
:201BE00044BF51F8043B40F8043BD20724BF31F8022B20F8022B44BF0B7803707047083A9A
:201C000007D3B1E80810083A40F8043B40F804CBF7D25307E4E7000000B55048017840780D
:201C200083B08DF8001000A948704D48027A8DF80220427ACA700622817AC07A8DF80410D7
:201C40008DF80500A02100A8FEF7FDFE06210120FEF7A3FE30210120FEF72EFE4148032183
:201C6000017003B000BD10B53E4C607882B000F50070ADF800000222A02100A8FEF7E3FEBD
:201C80000320207002210120FEF787FE30210120FEF712FE13BD33480178891E03D0491EB7
:201CA000012905D970470079F32802D1FFF700BD60E0704710B50220FEF792FE0446224636
:201CC000E0212948FEF7D5FE2648017811B1012904D007E02046BDE8104005E00079F32868
:201CE00001D119E01CE010BD10B51E4C20B11E490246201DFFF754FF2079F12804D0F3287A
:201D000005D0F52804D006E0BDE8104084E703E0BDE81040A7E703E0BDE81040FFF7C8BCFF
:201D200010210120FEF7C8FDBDE810404FF480510220FEF7D3BD10B50C462246A021FEF7B2
:201D400082FE21460120FEF728FE30210120FEF7B3FD04480321017010BD0000FE3F000856
:201D6000A82C00089C14002028140020004801E09C1400200021017002204FF44051FEF7E5
:201D8000ADBD80B518B1022807D00AD301BDBDE8044010210120FEF78FBD10210120FEF77C
:201DA0008BFDBDE80440C1E700B585B000F096F8454802210186018801F09F010180018847
:201DC00001806020ADF800000220ADF808000120ADF8020000A800F08EF8012000F0C6F8D9
:201DE000012000F0C0F8012000F0AAF805B000BD70B5364E0446307882B00D46844218D027
:201E00000021042000F0A0F8002000F095F8062C40D8DFE804F004121427181A2F002C482D
:201E2000016821F0F0010091009941F04001016030E07068A842EAD173BD502000E04020CD
:201E400000F08CF826E0502000E0402000F086F82048858248F6A04101820420012100F0A3
:201E600073F817E01B4864218182818A49080184642105E017488582690801844FF6FF71B9
:201E800001820188C9B20091009941F4D041009100990180012110480160307800281CBF1A
:201EA0000428052809D144B10948016821F0F0010091009941F0B001016034707560012037
:201EC000BDE8764000F038B8002C0140B014002004080140182C01408082254280B50121E4
:201EE0004FF4006000F0EDF8BDE8044000214FF4006000F0E6B8DFF88C10DFF88C300A8897
:201F00004FF0000CC3F800C0D2B2B0F800C042EA0C220A8042881A6082889A6002895A609E
:201F20004289DA608389DFF86420FFE71360C3895360C08808847047DFF8541008607047F8
:201F4000DFF8501008607047DFF84C20012911880CBF084321EA00001080704709490A88D9
:201F600040F67F7308E00D49086070470C49086070470A884FF2FF331A4042EA0020088035
:201F800070470000182C014010842542A880254200802542BC8825420C2C01401C8025426D
:201FA0002C8325425848594A0021C16001611421416100218161C161016841F0010101602B
:201FC000416811404160524A016811400160016821F480210160416821F4FE0141600021B0
:201FE0008160704748490A6822F480320A60B0F5803F0A6822F480220A6003D0B0F5802FF5
:2020000004D07047086840F4803002E0086840F4A020086070473F483B490A68520C02F0AF
:20202000010202704268521C4260027812B94268FF2AF2D10868800301D5012070470020D5
:202040007047354A136823F47C1318430843106070473249086070472F490A68920840EA14
:202060008200086070472C48006800F00C00704729490A6822F0F00203E027490A6822F46D
:20208000E06210430860704723490A6822F4605242EAC00008607047214908607047214AE7
:2020A0000029116814BF084321EA0000106070471D4A0029116814BF084321EA000010608C
:2020C00070471A4A0029116814BF084321EA00001060704716490870704741090A4A01299D
:2020E00008BF116803D002290CBF116A516A00F01F0021FA00F000F0010070470D48016821
:2021000041F0807101607047001002400000FFF8FFFFF6FEB8140020041002406000424224
:20212000D8004242181002401C1002400C100240071002402410024000B59248816843681B
:20214000026889B001A800910FF2742100F040F98D4901A8062210F8013B01F8023B521E52
:2021600010F8013B01F8023B10F8013B01F8023B10F8013B01F8023BEDD109B000BD8348F2
:202180000068807A00B9704780B50120FEF7DFFB0220FEF7CCFB7E480021017001BD000054
:2021A00038B5FFF7C9FF794C20680021817200F029F900217748784A784D41604FF4044171
:2021C0001180016076492068C979417208E02878012804D14FF4FA710420FFF709FE00BFBD
:2021E0002068807A0028F2D005216E48017031BD10B56D48002181720020FEF74FFB4FF408
:2022000000710020FEF751FB20210020FEF754FB20210020FEF7B2FB644C94F82C100020AC
:20222000FEF7C2FB60210020FEF7A7FB0020FEF773FB0020FEF766FB00210120FEF735FB54
:20224000A0210120FEF799FB20210120FEF734FB00210120FEF742FB00210220FEF725FBC1
:20226000E0210220FEF78AFB94F82C100220FEF79BFB4FF440510220FEF730FB00210220F3
:20228000FEF71AFB00210320FEF70FFB4FF480710320FEF772FB20210320FEF70DFB0021B6
:2022A0000320FEF71BFB94F82C100020FEF77CFB0020FEF727FB0020FEF7A2FA3448002117
:2022C000017010BD7047704780B5304909680A7802F07F02212A08BFFE280BD14888002832
:2022E00001BF88880028C888012803D10FF28100020001D1022002BD88610020488200F09F
:2023000037F8002002BD80B5204909680A7802F07F02212A08BFFF2815D14888002804BFD1
:20232000888800280FD1C88868B90120FEF70FFB0220FEF7FCFA0320FEF709FB144800214E
:202340000170002002BD022002BD00290CBF0028022070471649FEF719B81649FEF716B810
:202360000A49154A0968C97802EBC101FEF70EB828B90648006801210182002070470F4825
:2023800070470000E8F7FF1F02020020841400209C140020405C0040D4140020CC140020F9
:2023A0008C020020D814002068140020340200203803002040030020B4020020D0140020D9
:2023C000253038582530385825303858000000000CB41CB5044604A801900A46009401ABA6
:2023E00000A9074878441830FEF766FE009900220A7000285CBF0098001B16BC5DF80CFB2F
:20240000C7F1FFFF80B5012000F0F1F80C480D4A012101600021016041604FF4044111806D
:202420000160002002BD10B5054C012020600020606000F0DCF803202060002010BD000071
:20244000405C0040D414002010B582B000F01BF86C4C4FF40041204600F080F94FF4004010
:20246000ADF8000000A914208DF8030001208DF80200204600F012F900F0CEF8FFF794FC0D
:2024800000F07CF813BD80B5FFF78CFD4FF48030FFF7A8FDFFF7BFFD012828D11020FFF7CC
:2024A00078FA0220FFF76AFA0020FFF7E1FD4FF48060FFF7E9FD4FF48060FFF7DEFD002027
:2024C000FFF7EAFD4FF4E0114FF48030FFF7B9FD0120FFF7BEFD3920FFF7FFFD0028FAD03D
:2024E0000220FFF7B9FDFFF7BEFD0828FBD1FFF756FA01214FF40000FFF7DAFD012140F691
:202500000C20FFF7CCFD0620FFF7E4FD4FF48070ADF8000000A918208DF8030002208DF8EB
:202520000200384800F0BAF801BD10B5364C00224FF40041204600F015F9322000F034F9F9
:202540002046BDE810400122012100F00BB92F480068000701D400207047012070472C4948
:202560000A784FF0FF30502A07D128480068000701D4487870476FF00100704780B5002181
:202580004FF0006000F065F92248002101604FF4A06000F019F914208DF8000001208DF8BE
:2025A000010000208DF8020001208DF8030000A800F00FF913208DF8000000208DF80100CC
:2025C0008DF8020001208DF8030000A800F001F91B208DF8000000208DF801008DF802004C
:2025E00001208DF8030000A800F0F3F801BD054A00284FF40041104618BF00F0AFB800F082
:20260000AFB8000000080140000C0140080C0140303C0008445C004010B582B001210120DA
:20262000FFF73DFD0121094800F0A1F808480178462902D14078C00705D401224FF4004164
:20264000044800F08FF8034C06E000BF00023000443C0008000C014000220121204600F022
:2026600081F848F20100ADF8000000A914208DF8030001208DF80200204600F00FF808206F
:20268000ADF8000000A948208DF8030001208DF80200204600F002F813BD00002DE9F041ED
:2026A000CC78002204F00F03E40644BF8C7823430C88E5B22DB3D0F800C001250F2605FA6A
:2026C00002F7BE460EEA0408F04515D14FEA820E06FA0EF82CEA080C03FA0EFE4EEA0C0C8C
:2026E00091F803E0BEF1280F08BF476191F803E0BEF1480F08BF0761521C082ADFD3C0F86E
:2027000000C0FF2C28DDD0F804C0002201250F2602F1080705FA07F7BE460EEA0408F04584
:2027200015D14FEA820E06FA0EF82CEA080C03FA0EFE4EEA0C0C91F803E0BEF1280F08BF48
:20274000476191F803E0BEF1480F08BF0761521C082ADDD3C0F804C0BDE8F0810161704735
:20276000416170470AB1016170474161704770B40C4A1368C0F3034485B2860248BF23F00B
:20278000E06306D4C60243BF032606FA04F4A343AB4321B180024CBF43EA05432B431360A8
:2027A00070BC70470400014041F27C51484381B0002102E000BF0099491C00910099814288
:2027C000F8D301B070470000274908432749086070472DE9F0410578C278012182B3234ABA
:2027E000204C126825F0030302F4E0621F5990F801C0C2F5E062120AC2F1040E0CFA0EFCF5
:2028000090F802E04FF00F0828FA02F202EA0E0205F0030542EA0C02ED00FF261201AE409C
:20282000AA40B74332403A431A510078104B420900F01F0001FA00F043F82200BDE8F081CF
:2028400005F01F03064A6809994042F82010BDE8F081084A114008430749086070470000EA
:2028600080E100E000E400E00000FA050CED00E000E100E080FFFF1F08ED00E02DE9F84FEB
:2028800040F68F7448F60F784BF68F7B654F664DDFF89891DFF898A121E0300404D52868DA
:2028A00020402860FDF73BFF286839880BEA0000CA0448BF80F48050890448BF80F400504B
:2028C000286048F6BF71286808407988CA0648BF80F01000890648BF80F020002860686C50
:2028E000AAF80000000460D547F6FF706864BAF8000010F00F0089F8000035D148F6BF71CF
:20290000286800F440503880286800F03000788028680BEA000080F400502860286808409A
:2029200080F020002860BAF80000C00628680FD408EA00002860FDF7CBFE4FF40841286841
:202940000842B1D0286820402860FDF78DFEABE786B2300605D5286808EA00002860FDF7DD
:20296000B7FE300599D5EDE755F820108EB231040AD555F82010214045F820102D4901EBAD
:20298000800050F8040C80473006A8D599F8000055F8201008EA010145F82010264901EB1B
:2029A000800050F8040C804799E7BDE8F18F2DE9F84FDFF88090DFF870B01C4F1C4CDFF8EE
:2029C0007CA040F68F7547F6FF7824E0CAF80080208800F00F0038705BF820108EB2310460
:2029E00009D55BF8201029404BF8201009EB800050F8040C804730060DD538785BF82010BC
:202A000048F60F7211404BF820100B4901EB800050F8040C8047DAF8000020800004D5D435
:202A2000BDE8F18FC8140020005C0040D7140020CE1400201C03002000030020445C00408A
:202A400080B50120C046C0467B20FFF746FB08B900F018F8FFF752FB3A483B49008880022E
:202A600050F8040C884202D100F082F801E000F009F8002002BD80B5FFF7E6FC00F082F8CF
:202A8000BDE801402DE9F8434FF4FA610420FFF7AFF9FFF7C8FC0A20FFF786FEFFF757FDF7
:202AA0000446012C08BFFFF740FDFFF758FD0546012D02DB0CB92548057200F077F8012DCE
:202AC00002DB0CB9FFF731FD00210120FFF790F9FEF7E6FD1E4C1F4DDFF87C80DFF87C900B
:202AE0001F4E204F1AE0D9F8002092B24146284600F078F8D9F800102068FEF79BFD3878D0
:202B000000F0FD0040F0010038703078072805D1FFF70BFDFFF787FC00F02AF83878800782
:202B2000F3D53078212808D0412802D05128DAD0E5E72068FEF778FDE1E751203070DEE74A
:202B400000000000E0F7FF1FD32700A58C0200206003002074030020740B002068030020EF
:202B6000580300205903002000400008000000085FF80C00016881F3088800F104000168E0
:202B80000847000010B5074979441831064C7C44163404E00A68081D511888470146A14292
:202BA000F8D110BD000200002002000010B50A4C0A49E461022020726162094820620068F6
:202BC00080474FF40070E0624FF48010A0624FF40060206310BD00BF68140020DC02002018
:202BE00034020020F0B5054617460F2085B00E46074200D107B942E0244C207800283BD142
:202C0000FFFFFFFFFFFFFFFFFFFFFFFFFFFFFFFFFFFFFFFFFFFFFFFFFFFFFFFFFFFFFFFFD4
:202C2000FFFFFFFFFFFFFFFFFFFFFFFFFFFFFFFFFFFFFFFFFFFFFFFFFFFFFFFFFFFFFFFFB4
:202C4000FFFFFFFFFFFFFFFFFFFFFFFFFFFFFFFFFFFFFFFFFFFFFFFFFFFFFFFFFFFFFFFF94
:202C6000FFFFFFFFFFFFFFFFFFFFFFFFFFFFFFFFFFFFFFFFFFFFFFFFFFFFFFFFFFFFFFFF74
:202C8000FFFFFFFFFFFFFFFFFFFFFFFFFFFFFFFFFFFFFFFFFFFFFFFFFFFFFFFFFFFFFFFF54
:202CA000FFFFFFFFFFFFFFFFFFFFFFFFFFFFFFFFFFFFFFFFFFFFFFFFFFFFFFFFFFFFFFFF34
:202CC000FFFFFFFFFFFFFFFFFFFFFFFFFFFFFFFFFFFFFFFFFFFFFFFFFFFFFFFFFFFFFFFF14
:202CE000FFFFFFFFFFFFFFFFFFFFFFFFFFFFFFFFFFFFFFFFFFFFFFFFFFFFFFFFFFFFFFFFF4
:202D0000FFFFFFFFFFFFFFFFFFFFFFFFFFFFFFFFFFFFFFFFFFFFFFFFFFFFFFFFFFFFFFFFD3
:202D2000FFFFFFFFFFFFFFFFFFFFFFFFFFFFFFFFFFFFFFFFFFFFFFFFFFFFFFFFFFFFFFFFB3
:202D4000FFFFFFFFFFFFFFFFFFFFFFFFFFFFFFFFFFFFFFFFFFFFFFFFFFFFFFFFFFFFFFFF93
:202D6000FFFFFFFFFFFFFFFFFFFFFFFFFFFFFFFFFFFFFFFFFFFFFFFFFFFFFFFFFFFFFFFF73
:202D8000FFFFFFFFFFFFFFFFFFFFFFFFFFFFFFFFFFFFFFFFFFFFFFFFFFFFFFFFFFFFFFFF53
:202DA000FFFFFFFFFFFFFFFFFFFFFFFFFFFFFFFFFFFFFFFFFFFFFFFFFFFFFFFFFFFFFFFF33
:202DC000FFFFFFFFFFFFFFFFFFFFFFFFFFFFFFFFFFFFFFFFFFFFFFFFFFFFFFFFFFFFFFFF13
:202DE000FFFFFFFFFFFFFFFFFFFFFFFFFFFFFFFFFFFFFFFFFFFFFFFFFFFFFFFFFFFFFFFFF3
:202E0000FFFFFFFFFFFFFFFFFFFFFFFF024801688D4640680047000000400008FFFFFFFF05
:202E2000FFFFFFFFFFFFFFFFFFFFFFFFFFFFFFFFFFFFFFFFFFFFFFFFFFFFFFFFFFFFFFFFB2
:202E4000FFFFFFFFFFFFFFFFFFFFFFFFFFFFFFFFFFFFFFFFFFFFFFFFFFFFFFFFFFFFFFFF92
:202E6000FFFFFFFFFFFFFFFFFFFFFFFFFFFFFFFFFFFFFFFFFFFFFFFFFFFFFFFFFFFFFFFF72
:202E8000FFFFFFFFFFFFFFFFFFFFFFFFFFFFFFFFFFFFFFFFFFFFFFFFFFFFFFFFFFFFFFFF52
:202EA000FFFFFFFFFFFFFFFFFFFFFFFFFFFFFFFFFFFFFFFFFFFFFFFFFFFFFFFFFFFFFFFF32
:202EC000FFFFFFFFFFFFFFFFFFFFFFFFFFFFFFFFFFFFFFFFFFFFFFFFFFFFFFFFFFFFFFFF12
:202EE000FFFFFFFFFFFFFFFFFFFFFFFFFFFFFFFFFFFFFFFFFFFFFFFFFFFFFFFFFFFFFFFFF2
:202F0000FFFFFFFFFFFFFFFFFFFFFFFFFFFFFFFFFFFFFFFFFFFFFFFFFFFFFFFFFFFFFFFFD1
:202F2000FFFFFFFFFFFFFFFFFFFFFFFFFFFFFFFFFFFFFFFFFFFFFFFFFFFFFFFFFFFFFFFFB1
:202F4000FFFFFFFFFFFFFFFFFFFFFFFFFFFFFFFFFFFFFFFFFFFFFFFFFFFFFFFFFFFFFFFF91
:202F6000FFFFFFFFFFFFFFFFFFFFFFFFFFFFFFFFFFFFFFFFFFFFFFFFFFFFFFFFFFFFFFFF71
:202F8000FFFFFFFFFFFFFFFFFFFFFFFFFFFFFFFFFFFFFFFFFFFFFFFFFFFFFFFFFFFFFFFF51
:202FA000FFFFFFFFFFFFFFFFFFFFFFFFFFFFFFFFFFFFFFFFFFFFFFFFFFFFFFFFFFFFFFFF31
:202FC000FFFFFFFFFFFFFFFFFFFFFFFFFFFFFFFFFFFFFFFFFFFFFFFFFFFFFFFFFFFFFFFF11
:202FE000FFFFFFFFFFFFFFFFFFFFFFFFFFFFFFFFFFFFFFFFFFFFFFFFFFFFFFFFFFFFFFFFF1
:2030000052096AD53036A538BF40A39E81F3D7FB7CE339829B2FFF87348E4344C4DEE9CB44
:20302000547B9432A6C2233DEE4C950B42FAC34E082EA16628D924B2765BA2496D8BD1254E
:2030400072F8F66486689816D4A45CCC5D65B6926C704850FDEDB9DA5E154657A78D9D8410
:2030600090D8AB008CBCD30AF7E45805B8B34506D02C1E8FCA3F0F02C1AFBD0301138A6B2E
:203080003A9111414F67DCEA97F2CFCEF0B4E67396AC7422E7AD3585E2F937E81C75DF6E76
:2030A00047F11A711D29C5896FB7620EAA18BE1BFC563E4BC6D279209ADBC0FE78CD5AF4B6
:2030C0001FDDA8338807C731B11210592780EC5F60517FA919B54A0D2DE57A9F93C99CEF64
:2030E000A0E03B4DAE2AF5B0C8EBBB3C83539961172B047EBA77D626E169146355210C7D20
:203100003203300030003000300030003000300030003000300030003000300030003000AA
:203120003000300030003000300030003000300031000000A1210008F1210008C52200080B
:20314000C7220008C9220008072300084B230008552300085B230008612300080000000051
:20316000400000000000000100000002000000040000000800000010000000200000004090
:20318000000000800000001B000000360902270001010080320904000003FFFFFF0407055B
:2031A0008102400000070502024000000705830240000000BC2C000804000000C02C000843
:2031C00026000000E82C00081A0000000002002032000000042D0008100000006D08000879
:2031E0007F2100086D0800086D0800086D0800086D0800086D0800086D0800086D080008BC
:20320000292E00086D0800086D0800086D0800086D0800086D0800086D0800086D080008E4
:203220002D2E00086D0800086D0800086D0800086D0800086D080008A82C000812000000CC
:203240008C0200202700000004010000FFFFFFFFFFFFFFFFFFFFFFFFFFFFFFFFFFFFFFFFA8
:20326000FFFFFFFFFFFFFFFFFFFFFFFFFFFFFFFFFFFFFFFFFFFFFFFFFFFFFFFFFFFFFFFF6E
:20328000FFFFFFFFFFFFFFFFFFFFFFFFFFFFFFFFFFFFFFFFFFFFFFFFFFFFFFFFFFFFFFFF4E
:2032A000FFFFFFFFFFFFFFFFFFFFFFFFFFFFFFFFFFFFFFFFFFFFFFFFFFFFFFFFFFFFFFFF2E
:2032C000FFFFFFFFFFFFFFFFFFFFFFFFFFFFFFFFFFFFFFFFFFFFFFFFFFFFFFFFFFFFFFFF0E
:203C0000DA8DCCBCE6C182E42CB1646F40EAD61BFFFFFFFFFFFFFFFFFFFFFFFFFFFFFFFFED
:203C20004AFFFFFFFFFFFFFFFFFFFFFFFFFFFFFFFFFFFFFFFFFFFFFFFFFFFFFFFFFFFFFF59
:203C4000FFFFFFFFFFFFFFFFFFFFFFFFFFFFFFFFFFFFFFFFFFFFFFFFFFFFFFFFFFFFFFFF84
:203C6000FFFFFFFFFFFFFFFFFFFFFFFFFFFFFFFFFFFFFFFFFFFFFFFFFFFFFFFFFFFFFFFF64
:203C8000FFFFFFFFFFFFFFFFFFFFFFFFFFFFFFFFFFFFFFFFFFFFFFFFFFFFFFFFFFFFFFFF44
:203CA000FFFFFFFFFFFFFFFFFFFFFFFFFFFFFFFFFFFFFFFFFFFFFFFFFFFFFFFFFFFFFFFF24
:203CC000FFFFFFFFFFFFFFFFFFFFFFFFFFFFFFFFFFFFFFFFFFFFFFFFFFFFFFFFFFFFFFFF04
:203CE000FFFFFFFFFFFFFFFFFFFFFFFFFFFFFFFFFFFFFFFFFFFFFFFFFFFFFFFFFFFFFFFFE4
:203D0000FFFFFFFFFFFFFFFFFFFFFFFFFFFFFFFFFFFFFFFFFFFFFFFFFFFFFFFFFFFFFFFFC3
:203D2000FFFFFFFFFFFFFFFFFFFFFFFFFFFFFFFFFFFFFFFFFFFFFFFFFFFFFFFFFFFFFFFFA3
:203D4000FFFFFFFFFFFFFFFFFFFFFFFFFFFFFFFFFFFFFFFFFFFFFFFFFFFFFFFFFFFFFFFF83
:203D6000FFFFFFFFFFFFFFFFFFFFFFFFFFFFFFFFFFFFFFFFFFFFFFFFFFFFFFFFFFFFFFFF63
:203D8000FFFFFFFFFFFFFFFFFFFFFFFFFFFFFFFFFFFFFFFFFFFFFFFFFFFFFFFFFFFFFFFF43
:203DA000FFFFFFFFFFFFFFFFFFFFFFFFFFFFFFFFFFFFFFFFFFFFFFFFFFFFFFFFFFFFFFFF23
:203DC000FFFFFFFFFFFFFFFFFFFFFFFFFFFFFFFFFFFFFFFFFFFFFFFFFFFFFFFFFFFFFFFF03
:203DE000FFFFFFFFFFFFFFFFFFFFFFFFFFFFFFFFFFFFFFFFFFFFFFFFFFFFFFFFFFFFFFFFE3
:203E0000FFFFFFFFFFFFFFFFFFFFFFFFFFFFFFFFFFFFFFFFFFFFFFFFFFFFFFFFFFFFFFFFC2
:203E2000FFFFFFFFFFFFFFFFFFFFFFFFFFFFFFFFFFFFFFFFFFFFFFFFFFFFFFFFFFFFFFFFA2
:203E4000FFFFFFFFFFFFFFFFFFFFFFFFFFFFFFFFFFFFFFFFFFFFFFFFFFFFFFFFFFFFFFFF82
:203E6000FFFFFFFFFFFFFFFFFFFFFFFFFFFFFFFFFFFFFFFFFFFFFFFFFFFFFFFFFFFFFFFF62
:203E8000FFFFFFFFFFFFFFFFFFFFFFFFFFFFFFFFFFFFFFFFFFFFFFFFFFFFFFFFFFFFFFFF42
:203EA000FFFFFFFFFFFFFFFFFFFFFFFFFFFFFFFFFFFFFFFFFFFFFFFFFFFFFFFFFFFFFFFF22
:203EC000FFFFFFFFFFFFFFFFFFFFFFFFFFFFFFFFFFFFFFFFFFFFFFFFFFFFFFFFFFFFFFFF02
:203EE000FFFFFFFFFFFFFFFFFFFFFFFFFFFFFFFFFFFFFFFFFFFFFFFFFFFFFFFFFFFFFFFFE2
:203F0000FFFFFFFFFFFFFFFFFFFFFFFFFFFFFFFFFFFFFFFFFFFFFFFFFFFFFFFFFFFFFFFFC1
:203F2000FFFFFFFFFFFFFFFFFFFFFFFFFFFFFFFFFFFFFFFFFFFFFFFFFFFFFFFFFFFFFFFFA1
:203F4000FFFFFFFFFFFFFFFFFFFFFFFFFFFFFFFFFFFFFFFFFFFFFFFFFFFFFFFFFFFFFFFF81
:203F6000FFFFFFFFFFFFFFFFFFFFFFFFFFFFFFFFFFFFFFFFFFFFFFFFFFFFFFFFFFFFFFFF61
:203F8000FFFFFFFFFFFFFFFFFFFFFFFFFFFFFFFFFFFFFFFFFFFFFFFFFFFFFFFFFFFFFFFF41
:203FA000FFFFFFFFFFFFFFFFFFFFFFFFFFFFFFFFFFFFFFFFFFFFFFFFFFFFFFFFFFFFFFFF21
:203FC000FFFFFFFFFFFFFFFFFFFFFFFFFFFFFFFFFFFFFFFFFFFFFFFFFFFFFFFFFFFFFFFF01
:203FE000FFFFFFFFFFFFFFFFFFFFFFFFFFFFFFFFFFFFFFFFFFFFFFFFFFFFFFFFFFFF2600B9
:2040000048180020B1EB0008CB56000881E50008CB560008CB560008CB560008000000006A
:20402000000000000000000000000000CB560008CB560008000000008D590008EDE4000867
:20404000CB560008CB560008CB560008CB560008CB560008CB560008CB560008CB56000818
:20406000CB560008CB560008CB560008CB560008CB560008CB560008CB560008CB560008F8
:20408000CB560008CB560008CB560008CB56000875BC0008CB560008CB560008CB560008C8
:2040A000CB560008CB560008CB560008CB560008CB560008CB560008CB560008CB560008B8
:2040C000CB560008CB560008CB560008CB560008CB5600084FBB0008CB560008CB560008AF
:2040E000CB560008CB560008CB560008FFFFFFFFFFFFFFFFFFFFFFFFFFFFFFFFFFFFFFFF59
:20410000000000000000000000000000000000004A2D4C696E6B2053544C696E6B2056329D
:2041200020636F6D70696C6564204A756E20323620323031372031303A33343A343100434F
:204140006F7079726967687420323031362D32303136205345474745523A207777772E73CD
:2041600065676765722E636F6D0000000000000000000000000000000000000000000000C8
:20418000F8B504460E46E56A94F88E70002000903B464FF00052204600F042F900970023EE
:2041A000022231462046AE6BB0470646380640F01002022120462B69984707462046696AA0
:2041C00088470120A06157EA060000D51BE00020F2BDF8B504460D46E66A94F88E700020C4
:2041E00000903B464FF00052204600F019F900970023022229462046B46BA047002800D5FF
:2042000001E00020F2BD4FF0FF30F2BD70B504461546E66AFFF7DDFF002802D54FF0FF3078
:2042200070BD2A46032120467369984710B16FF0010070BD2046B16A8847002070BD2DE99B
:20424000F04182B00446E56A0026DFF8747D386A00F1C8080022032120466B68984700AA09
:20426000032120466B6898470098C0F3C04028B9386AB8EB0000F2D54FF0FF363046BDE83B
:20428000F68170B504461546E66A0A4602217369984725F40022032120467369BDE8704069
:2042A00018472DE9F84304460D4690469946E66ADFF8901DFFF764FF002809D40022032184
:2042C00020467368984700AA0321204673689847287800F02DFF009A000240F002012046DF
:2042E000FFF7CFFF2046FFF7AAFF002814D4009EE76A0022022120467B68984742460221DE
:2043000020467B68984726F40022032120467B6998472046FFF793FF002808D46D1C08F178
:204320000408B9F10109D3D10020BDE8F2834FF0FF30BDE8F2832DE9F04182B004460D4641
:2043400016469846E76ADFF88C1DFFF719FF002809D40022032120467B68984700AA032103
:2043600020467B689847287800F0E2FE009A000240F003012046FFF784FF2046FFF75FFF3C
:20438000002807D4009A31682046FFF77AFF2046FFF755FF002807D46D1C361DB8F10108D1
:2043A000E1D10020BDE8F6814FF0FF30BDE8F681F8B504460E46E56ADFF81C1DFFF709FFDD
:2043C00048B93246072120466B6998470028204602D5E969884716E7A96A8847700718D55A
:2043E0002046296A8847022001F08BF8DFF8EC6C306A00F596670022032120462B68984786
:2044000000280BD5306A381A08D4642001F079F8F1E70022032120462B6898470020F2BD21
:20442000F0B4049C154656032AD490F88C6016B1D0F8842020E090F88E60B3421AD1D0F8C1
:2044400080606EB1876A07EBC607083FD7F800C0614501D37A680FE0083F761EF6D10BE0FF
:204460004FF44012016ADFF8786CB14204D14FF4700201E04FF44012A90048BF42F000525A
:20448000426040F2FF3190F88E20934208BFD0F888108160012101730460F0BC70472DE992
:2044A000F04383B00446E56A0026DFF8988B4146FFF766FE074694F88F0020B3002F1DD4A1
:2044C0000022114620466B689847074600AA032120466B689847814601AA032120466B6849
:2044E000984740EA0900074308D4009880035ABF0198C0F3C04684F88F6001E04FF0FF363E
:2045000094F88F00C8BB0022002120466B68984740EA070600AA002120466B689847304315
:2045200015D541462046FFF72BFE07460022002120466B68984740EA070600AA0021204675
:204540006B689847304348BF4FF0FF3016D4009800030FD5DFF88C2B002120466B69984790
:204560000022002120466B68984700AA002120466B6898470098C0F34046304603B0BDE85E
:20458000F0832DE9F04F83B08146D9F82C6009F28D0ADFF8B08A9AF80200002850D04146F6
:2045A0004846FFF7EDFD0022032148467368984700AA03214846736898470098C0F3C0409E
:2045C00040B9009840F440300090009A0321484673699847D9F82C700022032148467B68EB
:2045E0009847DFF8F85A286A00F1C80B01AA032148467B689847002802D54FF0FF3409E0E4
:204600000198C0F3C0441CB9286ABBEB0000EDD50198009084B900208AF80200009820F4C5
:204620004030009002460321484673699847002203214846736898479AF8020000283AD170
:2046400041464846FFF7C5FD99F88D00DFF8941A41EAC00A52460321484673699847D9F81F
:204660002C80002203214846D8F804309847DFF86C5A286A871C01AA03214846D8F80430A4
:204680009847002802D54FF0FF3406E00198C0F3404414B9286A381AEDD599F88D0050B182
:2046A0002AF00802032148467369984700220321484673689847002089F88D002046B1E3B3
:2046C0002DE9F04F89B0804608F12005EC6801F0010A0906480E00F00106D8F82000DFF8F5
:2046E000001A884213D108F1300000F046FF002848BF4FF0FF3000F1AF8108F1300000F0BD
:2047000038FF0022DFF8E0194046FFF77FFD002E00F08A800026DFF8D4194046FFF759FD94
:20472000D8F89400D0F88800C10703D540084000019009E00022032140466368984701AA02
:204740000321404663689847019800F1300201214046636998470022032140466368984780
:2047600001AA03214046636898470198002818BF10F1010F58D0400840000190A0F11001AE
:204780004046FFF726FD0022032140466368984704AA03214046636898470198A0F10C02CA
:2047A00001214046636998473246032140466368984705AA03214046636898470198A0F1AD
:2047C000080201214046636998473246032140466368984706AA0321404663689847019813
:2047E000021F01214046636998473246032140466368984707AA03214046636898470498D8
:20480000DFF8EC18884201BF04A84168DFF8E428914209D18168DFF8E028914201BFC068CB
:20482000DFF8D81888420126DFF8D4184046FFF7D0FC1F220321404663699847DFF80498AC
:2048400049464046FFF79CFC0022002140466368984700AA032140466368984702AA032174
:2048600040466368984700200099890303D40299090348BF0120002E61D0002840F0B08036
:2048800008F28D07F87860BBDFF878184046FFF777FC0022002140466368984703AA002168
:2048A000404663689847039840F0FF0200214046636998470022114640466368984701AA56
:2048C00000214046636898470198C0B200F055FF0190C0F10800F870039A00214046636976
:2048E000984749464046FFF74BFC029820F4402040F4803002900246032140466369984766
:20490000009880B200904FF0000ADFF8FC77C0F3C00048B1009820F00800009047EA0002CB
:2049200000214046636998470098C008C000009047EA0002002140466369984771E0002877
:2049400054D0009880B240F001000090DFF8B89749EA00020021404663699847BAF1000F41
:2049600035D0009840F002000090009849EA00020021404663699847DFF84476386A00F195
:20498000050B0022002140466368984700AA00214046636898470198800303D4386ABBEB5E
:2049A0000000F3D5009880B240F00800009049EA00020021404663699847009820F002006C
:2049C000009049EA00020021404663699847029820F4A02002900246032140466369984723
:2049E000029A01214046FFF74CFC1AE0DFF8F40640EACA0001900098C0F3C000824504D03F
:204A0000019A0021404663699847019820F002000190024600214046636998474046A16A42
:204A20008847DFF8E806006808B100F08FFFED684046A96A88470022032140462B68984748
:204A400008F28D07BE70B978C90744BF01213971002858BF88F88DA009B0BDE8F08F2DE9EB
:204A6000F04786B0814609F12006F768D9F82000DFF86C16884213D109F1300000F07DFDF7
:204A8000002848BF4FF0FF3000F1DF8009F1300000F06FFD0022DFF850164846FFF7B6FB0F
:204AA000DFF8A05599F88F00002800F08F80DFF854164846FFF764FB0022002148467B680B
:204AC000984704AA002148467B6898470498C0B20490F46829464846FFF752FB002809D495
:204AE0000022032148466368984700AA0321484663689847009840F480200090009A032178
:204B000048467B69984714208DF80C00012305AA03A94846FFF7C5FB059820F47F400190BB
:204B20000499012299F89030C3F108039A40511840EA01200190012301AA03A94846FFF787
:204B4000FAFB009A01214846FFF79BFBF5680022032148466B689847DFF86444206A00F1AD
:204B6000C80A02AA032148466B689847002802D54FF0FF380BE00298C0F3C048B8F1000FE6
:204B800003D1206ABAEB0000EBD502980090B8F1000F50D4009820F4802000900246032104
:204BA00048467B699847012301AA03A94846FFF778FB0598000A019960F30F2101910123B8
:204BC00001AA03A94846FFF7B6FB34E029464846FFF7FFFADFF83825032148467B699847A0
:204BE000DFF83025032148467B699847F5680022032148466B689847DFF8C443206A00F1D8
:204C0000020A02AA032148466B689847002802D54FF0FF3809E00298C0F34048B8F1000F8D
:204C200003D1206ABAEB0000EBD5DFF8B824032148467B699847F6684846B16A8847002291
:204C40000321484633689847404606B0BDE8F0872DE9F84F04460D4690469A46E66A94F844
:204C60008F0020B12046FFF71CFB814639E0DFF8D4132046FFF784FA0028DFF8607448BF0F
:204C80004FF0FF302ED42A780121204673699847002200212046736898474FF00009386A72
:204CA00000F1C80B00AA00212046736898470098C00306D4386ABBEB0000F3D54FF0FF3989
:204CC0000FE000220221204673689847424602212046736898476D1C08F10408BAF1010A71
:204CE000D1D14846BDE8F28F2DE9F84F80460D4616469A46D8F82C4098F88F0020B14046FA
:204D0000FFF719FB814634E0CE494046FFF738FA0028DFF8C87348BF4FF0FF302AD43268A2
:204D20000221404663699847287840F48032012140466369984700220021404663689847D3
:204D40004FF00009386A00F1C80B00AA00214046636898470098C00306D4386ABBEB00002D
:204D6000F3D54FF0FF3904E06D1C361DBAF1010AD5D14846BDE8F28F02B582B00F218DF886
:204D80000010012302AA00A9FFF7AEFF03B000BD2DE9F04F83B00446884691469A46E66AD0
:204DA00094F88EB00C9DC5F3036105F00F074FF0FF30D9B9206ACA4988420BD1A80046BF69
:204DC000012000FA07F209FA07F2414604F1300000F0B0FB0D9800905B462A464146204649
:204DE000FFF71EFBCDF808B0002013E0082919D3C5F30260691301F0180141EA000B002001
:204E000000905B462A4641462046FFF709FBCDF808B003200190009753464A46414620462C
:204E2000346BA04703B0BDE8F08F2DE9F04F85B081460D4616461F46D9F82C00804699F85C
:204E40008E1003910E9AC2F3036102F00F044FF0FF3B00295ED199F88F1000293ED0AE492B
:204E60008D423BD1022C08BF012E48D1054675494846FFF785F9002869D4002203214846D6
:204E80006B689847064600AA032148466B6898472D1D06437878B978090441EA0020F97889
:204EA00040EA016020F47020009901F4702141EA0002032148462B699847304303D5484679
:204EC000A969884743E0D9F82C504846A96A88470022032148462B6898470DE07E48854251
:204EE00004BF022C012E0AD1384600F052FC01464846FFF75DFA50BB4FF0010B27E000205C
:204F00000090039B29464846FFF78AFA03980290002012E008291AD3C2F30260511301F023
:204F2000180141EA000A00200090534629464846FFF776FACDF808A00320019000943B4641
:204F4000324629464846D8F83490C8478346584605B0BDE8F08F70B582B00469E56A0120C5
:204F600094F8911051B36C492046FFF732F906460022032120466B689847064300AA012105
:204F800020466B689847304317D40098C0F3C04018B1002084F891000FE00098C0F30040E0
:204FA00058B9009840F48032032120466B69984700AA012120466B689847002076BD0000EE
:204FC0002800002070B582B005460C46EE6A286A4349884234D10020009000224F49284678
:204FE000FFF714F94E492846FFF7F3F80022032128467368984700AA032128467368984764
:205000000098C0F3C900451C0098C0F34E30461C0120009901F00301891C88400121216031
:2050200003212171800000F00BFCE071304600F007FC6071284600F003FCA0710120207495
:20504000002076BDF0ED00E070B582B00446E56A0026206A2249884223D132492046FFF7A0
:20506000B8F80022032120466B68984700AA032120466B6898470098C0F3400088B12A4A04
:20508000012120466B6998470022032120466B68984700AA032120466B6898470098C0F346
:2050A0000046304676BD38B5046A0D4DAC420ED1049C01EB840191F90740A2408979C1F107
:2050C000200103FA01F10A431849FFF79FF8002032BD0000F0ED00E00CED00E02800002098
:2050E000FF00010E03005FA050EF00E008ED00E04A4C494E4B4D4F4E48414E444C4552004C
:2051000030ED00E020ED00E000005FA01C0D00200F005FA00D005FA0FCED00E084ED00E029
:2051200080ED00E078ED00E014ED00E074EF00E0402828BF2B3806D2212808BF142002D019
:20514000142808BF1320C0B2704750F8041B61B150F8042BD30744BFA9F101039A180023B0
:2051600042F8043B091FFAD1EFE7704730B4802080F3118800BF00BFDFF8B403816800228F
:20518000027182F3118800291CBF0A68002A21D04B6954699C421DD100E02246146814B137
:2051A00065699D42F9D0802383F3118800BF00BF0B6804698C4208BF0361086A0360186221
:2051C0000A621068086000B10162116092F8390082F83800002080F3118830BC704738B5CD
:2051E000DFF84C4300206071206A00F180406062E16908001CBF20468847002080F31188CD
:20520000E56826E0802080F3118800BF00BF206920B1686921694969884221D3287C400701
:2052200013D5E868216A401A012809DA284600F0DEF8802080F3118800BF00BF287C78B11A
:20524000E868616A411A48BF6062002080F311882D68002DD6D1802080F3118800BF00BF50
:2052600031BD70B5DFF8C8420020607001202070802080F3118800BF00BFE06B010005D04E
:2052800080470020E063606384F83800002080F3118800F063FB0078CD281CBF7D2000F01E
:2052A00063FBA06800281CBFC16B002904D009680A001CBF4068884794F8310040B1A068D9
:2052C00094F8301080F83810207908B1FFF74EFFA06820B1017C11B9416B491C416320694F
:2052E00048B304E028682061002080F31188802080F3118800BF00BF256925B32E7C16B38F
:2053000070070ED5E868216A411A012905DA284600F06DF8287C20B90DE0616A411A48BF9A
:20532000606206F0FB001028DCD1A86880684068007C0028D6D1802080F3118800BF00BFC0
:2053400001E0FFF74CFF60790028FAD1206910B32069007C0028206902D080688068406813
:20536000A060C06A0078CD281CBF782000F0FCFAA068C16B21B149680A001CBF406888472A
:20538000A06890F8381084F8301084F83110016B491C016307E084F8310084F83000A06047
:2053A000207080F31188204670BD6148407808B980F31188704710B55D4C2078401E2070E5
:2053C000207898B9606888B1802080F3118800BF00BF606830B101202070204600F021FBED
:2053E00000202070607808B980F3118810BD38B581684F4C41B1226AC2600A68496802B1A4
:2054000051600A6000218160017C11F00301017412D1216989B92061207838B9012020700E
:20542000204600F0FEFA0020207001E001206071607808B980F3118831BD42694B699342D4
:20544000E9D38142E8D09A42F6D103461B68002BEED05D69AA42EBD18B42F7D1DBE738B50B
:205460004169334C2278521C227004F10C0200E01A46136813B15D69A942F9D303600262A3
:20548000106043B118625A698A420CBF90F83910002180F83810017C51B9802181F31188ED
:2054A00000BF00BFFFF7A3FF607808B980F31188BDE831407FE738B51D4C25782078401CCE
:2054C0002070204600F0ADFA2570607808B980F3118831BD10B500F0D7FA154801210170A1
:2054E00000F03CFA044600F03DFA001BA0F12002012A05DBCD212046BDE8104000F06DB9DD
:2055000010BD0B490A6A10180A7802B109E0802282F3118800BF00BF8968C86004200874C9
:20552000C9E7002282F311880A6A121AFCD470472800002070B45218521E49094901520927
:205540005201521A5209521C4909C9B200EBD10393F82C40012501F00706B5402C4383F83D
:205560002C40491C521EF0D1012180F84E1070BC704720212C3000F095BA2DE9F04F83B0EA
:20558000044694F84E00002800F09B80002084F84E00A168080000F0948020688847002836
:2055A00000F08F806268100006D004F1180120689047002800F182802169080003D02068C7
:2055C000884700287AD4002627464FF0010901E0761C3F1DA069864269DA387F02281CBF0B
:2055E00003280428F4D1F87F94F84D10A0EB0108002094F84C107A7F8A4238BF881A002510
:2056000009FA08FA09FA00F0019016E0D4F80CC05FEA0C0008D000965B462A4604F1180191
:205620002068E047002849D40BF1010B97F91E0009FA00F08345E9DB6D1C97F91D0009FA08
:2056400000F08542C4DA05FA08F094F94C1009FA01F1491E08400021019A012AECDB03467A
:20566000BAF1010F0FDBD44604EBD30E9EF82CE003F0070B4EFA0BFE1EF0010E03D15B1C3B
:20568000BCF1010CF0D11EEB01010DD17B7F434409FA03F3181894F94C3009FA03F35B1E81
:2056A0001840521EC8D0DAE74FF0000BBEE76169080006D020688847002802D54FF0FF306E
:2056C00000E0002003B0BDE8F08FFEE7016800E0491C0A78202A18BF092AF9D00D2A18BFB3
:2056E0000A2AF5D00160704701680A0A1206120A42EA01620B021B0E42EA032242EA116134
:2057000001607047010A0906090A41EA00610202120E41EA022141EA1060704700EBD10038
:2057200001F0070100F0030201EBC20182089200106831B1C8405268C1F1200102FA01F1D3
:2057400008437047026806E0026802F8011B090A02F8011B090A02F8011B090A02F8011BFC
:20576000026070470170090A00F8011F090A00F8011F090A00F8011F704738B1002101E07C
:205780004008491CC207FBD5084670474FF0FF3070470178427841EA0221827841EA0241B0
:2057A000C07841EA00607047002110F8012B02E010F8012B491C002AFAD108467047012A7A
:2057C00009DB10F8013B11F801CB634501D001207047521EF5D100207047012A03DB00F86D
:2057E000011B521EFBD170474FF0000C02E019460CF1010C002902D44B009842F7D20023F4
:20580000BCF1000F09D45B00884224BF401A43F001034908BCF1010CF5D502B11060184600
:2058200070470022E0E780B5002805D500224042FFF7DAFF404202BD0022BDE80840D3E714
:20584000002101E0491C4000002800D4FAD1C1F11F00704710F8012B11F8013B0AB19A4242
:20586000F8D0D01A704770B582B004460D4620680090002600A8FFF729FF0020009909788D
:205880002D2903D10098401C009001200099097830293CD1009A5278782A18BF582A36D153
:2058A0000099891C00910978A1F13002D2B20A2A38BF30390CD3A1F16102D2B2062A38BF3D
:2058C000573905D3A1F14102D2B2062A24D23739002921D4009A521C009201EB0616117828
:2058E000A1F13002D2B20A2A38BF30390CD3A1F16102D2B2062A38BF573905D3A1F1410210
:20590000D2B2062A1AD237390029E3D516E0A1F13002D2B20A2A02D34FF0FF3076BD06EBBD
:20592000860201EB4201A1F130060099491C00910978A1F13002D2B20A2AF0D300B1764230
:20594000009820602E60002076BD00004FF0120100FB01F0401EFDD570470000004870472A
:20596000481600206846704706490A78521C0A7000224A7082F31188034908700878002835
:20598000FCD17047280000203C16002035488168002904BF08B008E0EFF30982A2F12802AD
:2059A000036882E8F84F83685A60FFF75AFC816879B14A6892E8F84F036002F1280282F35F
:2059C000098890692849814202D013F47F4F43D07047264826490968401A80F308884FF0AE
:2059E0008071C161234981617FF0060E704701BC2046DFF884E000BDFEE7204800681C49D7
:205A00000968401A203820F0070080F308884FF000011448417081F3118862B600F018F8D7
:205A2000FEE703680CB44FF0000141704FF0000181F311881249134A0A604FF0800181F3C2
:205A400011880CBC036070470D490E4A0A6070470B490C4A0A6070474FF0000181F31188E4
:205A600070470000280000203E5A00082818002038EC00087DE50008F959000800400008EF
:205A800004ED00E000000010EFF3108072B604490A6842F47F020A6080F31088704700BF2A
:205AA00020ED00E0002200F001B8000000B500BF130096469446103928BFA0E80C50FAD80B
:205AC0005FEA417C28BF0CC048BF40F8042BC90728BF20F8022B48BF00F8012B00BD0000BB
:205AE00010B500F0B1FE0446702001F07AF870212046BDE8104001F011B870472DE9F04F53
:205B000083B0044600208DF800004FF0FF3001F0BFFD01ADCD2C07D1022101A801F07AF89A
:205B20009DF80400697805E0032101A801F072F86878A97800EB012080B200F107084FEA66
:205B4000E8094FEA4907781C01F00BFE050009EB05060DD1384601F064F8484601F032F8E7
:205B600006208DF80000012100A800F0D7FF51E04946304601F04EF84946284601F061F836
:205B80000027DFF890AB01F07AF8A9EB0001A1EB070B20B1BBF1FF0FF5DD2BF03F0B4FEA3B
:205BA000CB03494503D108F00700C01FC3189DF8000080B99AF80000012812D1DFF8580B56
:205BC0004FF0FF310160BA19B919781901F045FE8DF8000005E0D81DC2100021B819FFF772
:205BE000FCFDD52C13D05946CF2C0DD1DFF8D40B007848B10BEB0700484505D1B8199DF863
:205C000000200BF80020491CB81900F0DDFF5F444F45B8D1DFF8040B017811B99DF80010B1
:205C20000170D52C0CD000F0E5FFCF2C02BFDFF8940B0078002804BF9DF8000000F0CEFF5B
:205C4000284601F0B1FD00F018BC00B583B001F0F5FFADF8000002F055FA8DF8020002F047
:205C600053FA8DF8030002F051FA8DF8040002F052FA8DF8050002F050FA8DF8060002F008
:205C80004EFA8DF80700082136E080B5042000F0A8FF42F6E36000F0A4FF4FF40060BDE8AB
:205CA000024000F09EBF0421DFF81C0B00F036BF00B589B02022002100A8FFF78EFDDFF8FC
:205CC0000C1B00A8FFF74EFD0C208DF804007C208DF80500B0208DF8060052208DF8070080
:205CE000202100A800F01AFF09B000BD00B583B000A802F01CF8062100A800F00FFF03B026
:205D000000BD80B501F0EEFDAFE0F0B5A3B000240025042101A800F07DFF02AE0EE000907D
:205D20004FF47A710098381AFFF77DFD074646F825706D1C641C019840080190019800B3F4
:205D4000C007F7D50D2C03D1022001F0FBFFEDE7204601F0F7FF074617F1010FE7D0A01E9B
:205D6000022884BF19380128E1D80422802100A800F06FFD009800284EBF0020400040103B
:205D8000CDE7A90002A800F0C9FE23B0F0BD30B5A1B000240025042100A800F03BFFDFF878
:205DA000300A4FF0FF3101AA0DE0DB0706D50B46042CB8BF036842F825306D1C641C009B4F
:205DC0005B080093001D009B002BEED1A90001A800F0A4FE21B030BD2DE9F043C3B001A824
:205DE00000F033FF00A800F030FF0120019911F0030F18BF0020009911F0030F18BF002052
:205E0000DFF8D0190C68002C18BF14F1010F23D010B3019D009EB6F5807F88BF4FF480761A
:205E20000098801B0090B04602AF2846FFF7B1FC814684EA09013846FFF794FC89F0A53452
:205E40003F1D2D1D361FF0D1414602A800F066FE00980028DED102E0009800F0B3FE43B084
:205E6000BDE8F08380B501F06EFCBDE8024000F0BEBE00B5C1B04FF48072002100A800F013
:205E80007DFD75E0F0B585B04FF0FF3426464FF4007001F066FC050004D14FF4037000F0F5
:205EA000C0FE50E04FF40072002100F067FD4FF48071284600F0AEFE042102A800F0AAFE25
:205EC000082103A800F0A6FE00224FF48071284602F028F90299884235D1082203A9DFF86B
:205EE000F808FFF76CFC70BB00262F460122314601A800F043FD17F8010B9DF80410014006
:205F000081421FD1761CB6F5007FEFD305F12000FFF73FFCB0B12846FFF73BFC060011D026
:205F20000422002100A800F029FD009810F1010F18BF864206D14FF40071284600F047FDE7
:205F4000060000D52646304600F051FE05B0F0BD80B54FF4807000F064FE002000F07FBBDF
:205F600000B5C1B04FF48072002100A800F071FC4FF4807100A800F0D1FD41B000BD10B593
:205F800004460422202100F064FC0422242104F1080000F05EFC0422402104F10C0000F0D6
:205FA00058FC0422482104F11000BDE8104000F050BC70B588B04FF0FF3425464FF48060AB
:205FC00001F0CFFB060004D140F20C4000F029FE2FE04FF48062002100F03BFC4FF48071E6
:205FE000304600F017FE042100A800F013FE082101A800F00FFE00224FF48071304602F0CB
:2060000091F80099884211D1082201A9DFF8C807FFF7D5FB50B903A8FFF7B1FF4FF48061F4
:20602000304600F095FC050048BF2546304601F0BBFB284600F0DBFD08B070BD4FF4807087
:2060400000F0EFBD2DE9F041CAB00025012101A800F0E0FD00A800F0F8FD9DF8040088B1C7
:2060600002283BD14FF40077082103A800F0D2FD082203A9DFF86007FFF7A1FB28B14FF0DF
:20608000FF3007E14FF48067EEE7384601F069FB040012BF3E464FF480760AAC384600F061
:2060A000A6FDA8463546BE4288BF3D469DF8040000282A464146204602D100F0CAFB01E083
:2060C00000F05CFC2946204600F028FDA8447F1BE8D10AA8844200F0DF80C6E0012869D17F
:2060E0000098B0F5806F40F0C48040F20C4001F038FB040027D0009800F10C01204600F077
:2061000089FD00220099204602F00CF8054600982044FFF73EFB854208D1082200982044A6
:20612000011DDFF8B406FFF74AFB10B14FF0FF3006E005A8FFF723FF0099204600F008FCA8
:2061400000F055FD91E005A8FFF719FF00F0A3FBA8460027009EB6F5807F88BF4FF4807666
:2061600031460AA800F056FD3A4631460AA801F0D9FF0746324641460AA800F092FBB044D2
:206180000098801B0090E5D10C210AA800F042FD0AA8FFF7FEFAB84206D108220BA9DFF852
:2061A0003806FFF70CFB18B100F075FB4FF0FF3528466FE00328009862D1B0F5007F58D108
:2061C0004FF4037001F0CDFA040052D0009800F10C01204600F01EFD00220099204601F012
:2061E000A1FF054600982044FFF7D3FA854208D1082200982044011DDFF8DC05FFF7DFFA8A
:2062000010B14FF0FF302EE0009D00262746012231460DF1050000F0B1FB17F8010B9DF828
:206220000510014081421CD1761CAE42EFD304F12000FFF7AEFAA0B12046FFF7AAFA06000A
:206240000FD00422002102A800F098FB029810F1010F18BF864204D12946204600F0B7FB55
:2062600001E04FF0FF3000F0C2FC204601F09CFA12E000980C3000F0D4FC4FF0FF3009E057
:20628000002814BF0C3008200090009800F0C9FC6FF0010000F0ABFC4AB0BDE8F08180B586
:2062A000032100A800F0B6FC9DF801109DF80000DFF8282502EB401002F0E9F801BD00B58E
:2062C00083B0012101A800F0A5FC009088B99DF80400FE2805D0FF280CBF022002F0E8F8E4
:2062E00002E0DFF8FC0400780090042100A800F015FC03B000BD80B5022100A800F08AFC29
:20630000BDF800004FF6FF71884204BF0020ADF80000BDF800004FF47A71484301F042FE22
:2063200001BD02F0DFB802F0DFB810B582B0012401210DF1010000F06DFC214600A800F0F8
:2063400069FC022000F06DFCA8B99DF801009DF8001041EA002040F2011188421FBF40F258
:206360000131884240F20161884201D140F2FF54204600F03CFC13BD80B5042100A800F01C
:2063800049FC9DF802009DF8031041EA002040F2011188421FBF40F20131884240F2016180
:2063A000884203D19DF8000002F06AF901BD0020DFF8301404220B8803B1401C2031521ED2
:2063C000F9D170470021DFF81C2432F8203B834201D108467047491C0429F6DB4FF0FF3012
:2063E00070472DE9F14F82B00D4690469B460C9C022642F21079DFF8E4A300270AF20A003C
:2064000030F8201BD9B9780140F80A5000EB0A05C5F8048085F808B06C72BDF80800688188
:20642000DFF8C403006AE86000A800F06CFB0098286101986861384601F02AF91DE07F1C60
:20644000042FDDDBDFF8A003006A00270AF10C0131F8022C5AB10A68821A4A4507DB3846DF
:2064600002F0D2F90AEB47100021418103E07F1C2031042FECDB761EBFD103B0BDE8F08F6C
:2064800030B599B0012102A800F0C4FB042105A800F0C0FB042104A800F0BCFB01210DF13E
:2064A000070000F0B7FB01210DF1060000F0B2FB022101A800F0AEFB9DF80800642802D010
:2064C000652829D04CE0BDF80400C0B9DFF81C030188491C0180ADF80410BDF80400FFF70B
:2064E00071FF0028F2D59DF8060000909DF80730049A0599BDF80400FFF773FF30E0FFF7E3
:2065000061FF00282CD4DFF8D41201EB4010DFF8D812096AC16023E0BDF80400FFF752FFA2
:2065200004001DD4DFF8B40200EB441500206881A86918B101F038F90020A861E86918B14D
:2065400001F032F90020E861204602F05DF9FFF72EFF28B901F0ABFBDFF89402002101607E
:2065600006A80390BDF8041003A8FFF7EBF8042103A8FFF7E7F8102103A8FFF7E3F8042116
:2065800003A8FFF7DFF80024DFF8505210222946039802F027FA039810300390641C203554
:2065A000042CF3DB01F04AFB014603A8FFF7CCF8200100F10C0106A800F0B0FA19B030BDDE
:2065C00010B584B002210DF1020000F023FB00241BE0022100A800F01DFB022101A800F0E3
:2065E00019FB02210DF1060000F014FB022102A800F010FB02210DF10A0000F00BFB01A9CE
:20660000BDF8000002F075FA641CBDF802008442DFDB04B010BD802080F3118800BF00BF02
:20662000002002F051FAF6E7F5E780B501F056FF0220FEF766FFBDE8014001F051BF80B531
:2066400001F050FF0220FEF75CFFBDE8014001F04BBF704780B501F0B3FC01F057FDBDE831
:20666000024000F0BBBACD20FFF748BACE20FFF745BACF20FFF742BA80B552480121017068
:206680005C4800F0E2FA5C48FFF7EFBB10B584B06FF00104102100A800F0BCFA009880282A
:2066A00004D2019901F0A9FB04462DE0B0F5C07F0CD2B0F5807F02D10198504922E040F2DF
:2066C0000111884220D101984D491BE0B0F5007F1AD2B0F5C07F02D101F092FB044600989C
:2066E00040F28111884207D1BDF80800FFF76AFE019900F0DFFF00240098B0F5C17F03D13C
:206700000198344908600024204600F070FA04B010BD000043160020940C00203A160020ED
:2067200080B5032100A800F075FA9DF801009DF8021000EB0120401C00F0E3FA01BD38B5DC
:2067400004462B4D286898B9601F0FD0C2380DD0801F022884BF0838012802D9C01E05D05E
:2067600006E028491E48007801F013FC012028601B2C04D3BA2C38BFFFF74DFF6134E4B2D3
:20678000214850F82400804700F0BEFA1648006A0024124D05F10C011C4A31F8023C5BB18E
:2067A0000B68C31A934207DB204602F02DF805EB44100021418131BD641C2031042CECDB78
:2067C00031BD00003B16002030EC0008335AEA985807002068070020E0EB0008280D0020F1
:2067E00043160020320D00202800002038160020AC0D0020180D0020104704001C0D002049
:20680000200D002040420F0054E20008C02709007047000080B5894800210160012000F01C
:20682000DDF96420FEF76DFE802080F3118800BF00BF83484178491C41707E487E490160EC
:20684000BDE8014001F082BA7E48017801B97E4870472DE9F04104000D46164618BF002EB0
:2068600017D07019B0F5806F13D8784FFF2D0FD8C5F58070B046864288BF804642467919C0
:20688000204602F0AFF84444B6EB0806454400D096E0BDE8F08180B56C4802F08FF900205A
:2068A00002BD2DE9F047C0B004000D46164608D0002E49D0B5F5806F03D27019B0F5806FFF
:2068C00002D94FF0FF3040E0FF2D20D8C5F58077B7F5807F88BF4FF48077B74288BF374691
:2068E0003A46214600A802F07DF800233A4600A905F1006000F5744002F03AF93C19F61BCC
:206900007D19FF2D02D8002EE0D11DE0E6B1A5F58075DFF83C8140F201194FF4807A4E4529
:206920002CBF574637463A46214600A802F05AF800233A4600A908EB050002F019F93C19E2
:20694000F61B7D19002EEAD1002040B0BDE8F08710B5040005D009B9002010BDB1F5806F99
:2069600002D04FF0FF3010BD384802F027F94FF4806200212046BDE8104092E72DE9F04117
:2069800004000D46164618BF002E17D07019B0F5007F13D82F4FFF2D0FD8C5F58070B0468F
:2069A000864288BF804642467919204602F01AF84444B6EB0806454400D001E0BDE8F081F7
:2069C000324679192046BDE8F04102F00BB8F0B5C1B00446B1F5007F28D13CB34FF480721A
:2069E000214600A801F0FEFF00234FF4807200A9184802F0BDF804F5807400250126164FF4
:206A00004FF48072214600A801F0ECFF00234FF4807200A9781902F0ABF804F5807405F548
:206A20008075761EECD1002041B0F0BD4FF0FF3041B0F0BDF84F002021433412240D0020E4
:206A400028000020980C00201041000800F4000800F5000800F8000800F900082DE9F84386
:206A60000F468146B54D286830B94846B44A1268D269BDE8F8431047B24E3368EBB1DFF8F9
:206A8000C882D8F80010CC1AA74238BF3C46A4B122464946181801F0A5FF30682118316011
:206AA000A1443F1BD8F80000814206D12868A44A1268D269904700203060A7B1A2480068C9
:206AC000401E37EA000408D0214648469C4A1268D2699047A1443F1B05D03A464946286841
:206AE00001F080FF3760BDE8F18338B5934C206840B9954D92480068406A8047286000F01C
:206B000030FE206031BD20B10021002206C040F8081D70478D48012101707047002918BFCC
:206B2000002809D08A4A1268002A18BFFFF796BF834A126852691047704738B504460D4620
:206B4000FFF7D3FF29462046BDE8344086E701B5FFF7CBFF042100A8FFF780FF01BD30B5B7
:206B600089B004462022C9B200A8FEF736FE212C2CBF20252546FFF7B8FF294600A8FFF762
:206B80006DFF641BF3D109B030BDF0B589B004462022C9B200A8FEF720FE694D6C4E212C43
:206BA0002CBF2027274630680028394600A802D0FFF754FF02E02A6852699047E41BEED170
:206BC00009B0F0BD0021E0E7614A1268002A18BFFFF744BF5A4A12689269104701B5012100
:206BE00001E001B5022100A8FFF798FF01BD01B50421F8E710B55148006800281EBF514CC6
:206C00002168002900D092E04D480068006ABDE81040004709B900207047494A126892683D
:206C2000104730B589B00446212C2CBF20252546294600A8FFF7EEFF08B9641BF4D109B0F5
:206C400030BD3F4A1268D26810470421E2E710B582B0044600A800220260FFF7DBFF9DF8F3
:206C600000109DF8012041EA02219DF8022041EA02419DF8032041EA0261216016BD3048C9
:206C80000068006800472E4800684068004780B5304801F0A7FF02F01CF829482E4901607D
:206CA00001BD2C4802F0ECB8284800210170244800680069004702F0C3B838B50446254D70
:206CC00003E00221284602F003F902F0B9F858B102F0B3F8012807DB19481F4901600121B2
:206CE0002046FFF797FF32BD02F0AAF80028E8D0002100A802F096F80028E2D54FF0FF30A9
:206D000032BD13490860F0E61148016801B9704710B5491E016009D10848006800281EBF93
:206D2000084C2168002900D001E06DE710BD044A1268526990470020206010BDC0070020CD
:206D4000CC070020C8070020C407002046160020BC070020B4070020E8E900082DE9F14FFD
:206D600086B04FF0FF35082104A8FFF753FFDDF810A00598010C0904039180B202908346F0
:206D800000F0E1FC029E864288BF0646B6F5805F84BF360A3602304600F0E3FC019008B94F
:206DA00038E0AA44BBF1000F01D1029D3AE0D846B34588BFB046ABEB080B55460027414642
:206DC0000198FFF73EFFB946FFF759FFA8EB0001A1EB090418B1402CF6D3A00984017FB909
:206DE000019848440090039B224629460698C769D7F808C0E0470746A74208BF002765193B
:206E0000A144C145E0D117B14FF0FF3502E04546002DC6D5BBF1000F1CBF5846FFF701FF3C
:206E2000019810B1019800F0BFFC2846FFF7DFFE07B0BDE8F08F38B50446A0688509AD011D
:206E40000BD02946206962688018FFF7BDFE206928182061A068401BA06031BD2DE9F14F5B
:206E600090B0082103A8FFF7D5FEDDF80CA00498010C0904029185B22E46112D0BD300F0B4
:206E800062FC8046281D404538BF8046404600F068FC070002D10AAF4FF01408A8F10409D9
:206EA000B14507D2B9F5806F05D94FEA59204FEA402900E0B146DFF8240805904FF4007012
:206EC0000890069700200790099005A801900097029B4A4651461098C469D4F804C0E04708
:206EE00004460998012C02DA361A1BD11DE0A244361BA4EB000B0CD12946E019FEF732FC2C
:206F00000BF104010998C019FFF75EFEFFF772FE0EE05946C019FFF757FEFFF76BFE4C459D
:206F2000BCD0AC1B3046FFF74DFE2046FFF75FFE0AA887421CBF384600F036FC11B0BDE832
:206F4000F08F70B5D4B00446052100A8FFF762FE9DF8001002A8FFF75DFE9DF80100F8B1BC
:206F60009DF8020068B1DFF87857296A46182069E169096A884740B9286A301AF7D50020F4
:206F800003E02069E169096A88471290012809DA1298012811DB9DF800008000011D0DE06C
:206FA000012012909DF8003013AA02A92069E469E468A0470028EBD51290042112A8FFF779
:206FC000ADFD54B070BD70B5D2B0054602E001A8FFF7A4FD002442AE012100A8FFF71AFED6
:206FE0009DF80000FF281EBF06F8010B641C402CF2D1234601AA42A92869EE69F668B04703
:20700000A1009DF80020FF2AE1D101AA42F82400091D01A8FFF782FD52B070BDF0B5D3B09B
:207020000446002542AE02AF0BE0042101A8FFF7F1FD9DF8000006F8010B019847F8040B1D
:207040006D1C012100A8FFF7E5FD9DF80000FF28EBD12B4602AA42A92069E4692469A0473B
:20706000FFF7C5FD53B0F0BD10B582B00446012100A8FFF7CFFD9DF800102069E2695269A7
:207080009047FFF7B4FDA06D18B10121204602F07DF813BD80B501460869C96989698847FD
:2070A00016E010B504462069E169C9698847FFF79EFDA06D28B100212046BDE8104002F012
:2070C00065B810BD80B501460869C969096A8847BDE80240FFF78BBD10B584B004460020DD
:2070E0000390142002900020019004E09DF8001003A8FFF78FFD012100A8FFF78BFD9DF8F3
:20710000000038B9039B019A02992069E469646AA04766E001210DF10100FFF77BFD9DF8B5
:2071200001000128E2D00AD3032804D007D29DF8001002A8DDE79DF8001001A8D9E79DF808
:207140000000FFF76EFDD6E710B584B004460020039001200290019004E09DF8001003A8A3
:20716000FFF758FD012100A8FFF754FD9DF80000E8B903992069E269926A9047DFF86005FE
:207180000178491C01700120FEF7BBF901992069E269526990470298FEF7B3F92069E169C8
:2071A000C96988470446FEF706F9204619E001210DF10100FFF72EFD9DF801000428CCD091
:2071C0000AD3062804D007D29DF8001002A8C7E79DF8001001A8C3E79DF80000FFF721FD59
:2071E000C0E7FFF704FD04B010BD2DE9F04E86B00446042102A8FFF70DFD00F0A4FA0299A4
:20720000814202D300F09FFA02900298052836D300F0A7FA81460298061F09F1040AB6B264
:207220003546DFF8BC74386A039004F1100BADB10020019000903346524600212069DBF85A
